:020000040800F2
:100000000000272029670008456600084D660008A3
:10001000556600085D660008656600087967000897
:100020000000000000000000000000006D660008F5
:100030007B660008000000008966000897660008DB
:100040007967000879670008796700087967000810
:100050007967000879670008796700087967000800
:1000600079670008796700087967000879670008F0
:1000700079670008796700087967000879670008E0
:1000800079670008796700087967000879670008D0
:1000900079670008796700087967000879670008C0
:1000A00079670008796700087967000879670008B0
:1000B00079670008796700087967000879670008A0
:1000C0007967000879670008796700087967000890
:1000D0007967000879670008796700087967000880
:1000E0007967000879670008796700087967000870
:1000F0007967000879670008796700087967000860
:10010000796700087967000879670008796700084F
:10011000796700087967000879670008796700083F
:10012000796700087967000879670008796700082F
:10013000796700087967000879670008796700081F
:10014000796700087967000879670008796700080F
:1001500079670008796700087967000879670008FF
:1001600079670008A56600087967000879670008C4
:1001700079670008796700087967000879670008DF
:1001800079670008796700087967000879670008CF
:1001900079670008796700087967000879670008BF
:1001A00079670008796700087967000879670008AF
:1001B000796700087967000879670008796700089F
:1001C000796700087967000879670008796700088F
:1001D000796700087967000879670008796700087F
:1001E000796700087967000879670008796700086F
:1001F000796700087967000879670008796700085F
:10020000796700087967000879670008796700084E
:10021000796700087967000879670008796700083E
:10022000796700087967000879670008796700082E
:10023000796700087967000879670008796700081E
:10024000796700087967000879670008796700080E
:1002500010B5054C237833B9044B13B10448AFF300
:1002600000800123237010BD280100200000000041
:1002700060EC000808B5034B1BB103490348AFF31A
:10028000008008BD000000002C01002060EC000888
:1002900080B582B000AF7860396001224FF4004130
:1002A000104807F07BF901224FF400510D4807F088
:1002B00075F901224FF480610B4807F06FF90122B4
:1002C00008210A4807F06AF97B683A681A607B6877
:1002D000A8221A71786800F03DF9034618460837DD
:1002E000BD4680BD00040242000C024200100242E2
:1002F00080B58CB004AFF8607A601A460B467B81FB
:1003000013463B8106F03CFBB8614FF47A737B6186
:1003100000224FF40071354807F040F958E07B891E
:1003200003F01F039BB2C3F12003FB83FA8B3B89CD
:100330009A4201D93B89FB83FB681868FB681B79EB
:1003400019467A8964230293FB8B01937B6800939F
:10035000022307F0D7F90346002B07D001224FF400
:100360000071224807F01AF901233BE0FB68186886
:10037000FB681B7919460A23052207F0F1FB0346A7
:10038000002B08D006F0FCFA0246BB69D31A7A6942
:100390009A42EBD800E000BF06F0F2FA0246BB69D1
:1003A000D31A7A699A4207D801224FF400710F4894
:1003B00007F0F4F8032315E03A89FB8BD31A3B814D
:1003C000FB8B7A6813447B607A89FB8B13447B81B7
:1003D0003B89002BA3D101224FF40071034807F0A1
:1003E000DDF8002318462037BD4680BD00100242CC
:1003F00080B586B000AFF8600B467A607B81FB6801
:10040000002B01D1012318E07B68DBB23B747B68D1
:100410001B0ADBB27B747B681B0CDBB2BB747B6892
:100420001B0EDBB2FB7407F1100279890423F86814
:10043000FFF75EFF0346FB75FB7D18461837BD4688
:1004400080BD80B58AB004AFF8607A601A460B466A
:100450007B8113463B810123FB7506F091FA3861DD
:10046000FB68002B02D07B68002B01D1012332E016
:10047000FB681868FB681B7919460A23052207F0F8
:100480006FFB0346FB75FB7D002B07D006F078FA67
:1004900002463B69D31A632BEAD900E000BFFB7D1B
:1004A000002B01D0032316E0FB681868FB681B795A
:1004B00019467A89642302933B8901937B680093F0
:1004C000022307F033FA0346FB75FB7D002B01D0B6
:1004D000012300E0002318461837BD4680BD80B5D3
:1004E00086B000AFF8600B467A607B81FB68002B1A
:1004F00002D07B68002B01D1012327E007F1100215
:1005000079890423F868FFF79CFF0346FB75FB7DA0
:10051000002B01D0FB7D19E03B7C1A467B681A60FA
:100520007B681A687B7C1B021A437B681A607B68B5
:100530001A68BB7C1B041A437B681A607B681A68C4
:10054000FB7C1B061A437B681A6000231846183789
:10055000BD4680BD80B584B000AF786001224FF405
:100560000071094807F01AF87B6818687B681B79E6
:1005700019466423022207F0F3FA0346FB73FB7B60
:1005800018461037BD4680BD0010024280B586B0C7
:1005900000AF78607B68002B00F0C8807B68043374
:1005A000184601F0D5FD7B6801221A707B68002295
:1005B0009A7006F0E5F902467B689A637B68002230
:1005C000DA637B68002283F840207B68002283F88E
:1005D00041207B681B7C022B04D17B684FF00262B8
:1005E0005A6402E07B68544A5A647B68002283F8AC
:1005F00048207B680022DA647B6800221A657B68E9
:10060000002283F854207B68002283F855207B6801
:10061000002283F856207B68002283F857207B68ED
:100620000022C3F89024454BD3F8F4207B68C3F82C
:1006300094247B6802221A700123FB7507F11003D2
:1006400000210A461A800A469A703D4A07F10C03B7
:100650001268114619800233120C1A7007F1100249
:10066000032337213748FFF7ECFE0346002B19D050
:100670000023BB7511E007F1100203233721314835
:10068000FFF7DFFE0346FB75FB7D002B09D005203D
:1006900006F082F9BB7D0133BB75BB7D012BEAD926
:1006A00000E000BFFB7D002B42D13B7CFF2B05D13E
:1006B0007B7CFF2B02D1BB7CFF2B0AD007F10C0106
:1006C00007F11003032218460EF080FA0346002BB0
:1006D0002FD001233B7400237B740123BB7407F1EB
:1006E0001002032337211748FFF702FE0346002BB1
:1006F0001FD000237B7511E007F11002032337217F
:100700001048FFF7F5FD0346FB75FB7D002B09D074
:10071000052006F041F97B7D01337B757B7D012B44
:10072000EAD900E000BFFB7D002B02E000BF00E043
:1007300000BF1837BD4680BD00000408000C02460B
:1007400078EC0008C4E90020B0B5CCB002AF07F5E2
:100750009473A3F59273186007F59473A3F59273DD
:100760001B68002B01F0348206F00AF9024607F5F7
:100770009473A3F592731B689B6BD21A07F594735D
:10078000A3F592731B68DA63BB4802F04DF8BA4BCD
:1007900003F5405393F8A63A602BB74B03F540534B
:1007A00093F8A63A602B0DD1B34B03F5405393F861
:1007B000AA3A182B06D107F59473A3F592731B6818
:1007C00009221A70AC4B03F5405393F8A63A602BFC
:1007D0001DD1A94B03F5405393F8AA3A192B16D112
:1007E00007F59473A3F592731B681B7C002B07D04D
:1007F00007F59473A3F592731B6808221A7006E03C
:1008000007F59473A3F592731B6809221A709A4B2B
:1008100003F5405393F8A63A602B08D1964B03F5A5
:10082000405393F8AA3A202B01D106F0F8F9924BE5
:1008300003F5405393F8A63A602B53D18E4B03F542
:10084000405393F8AA3A222B4CD18B4B03F54053DB
:1008500093F8AB3A012B45D107F1B00300210A46CA
:100860001A800A469A7007F1B002032337218348A1
:10087000FFF7E7FD0346002B09D0012387F8B430CA
:100880000023C7F824310023A7F8223109E0002310
:1008900087F8B43007F1B003C7F824310323A7F871
:1008A000223197F8B420B7F82211D7F824310093F9
:1008B0000B462221602002F05FFC03466E4A104680
:1008C000194642F21A731A460EF0BCF96A4B03F548
:1008D0008053B3F888331946674802F03BFC03465F
:1008E00087F81F3107F59473A3F592731B68DA6BD1
:1008F000634B1B68D31A002BB8BF5B4247F22F52E1
:10090000934216DD07F59473A3F592731B681B7C65
:10091000002B07D007F59473A3F592731B68082288
:100920001A7006E007F59473A3F592731B68092209
:100930001A70544807F0E2FD07F59473A3F592731B
:100940001B681B78023B072B01F2448101A252F87D
:1009500023F000BF75090008E3090008890A0008B0
:10096000610B0008890C0008E91800089F1B0008AB
:10097000C51B000807F59473A3F59273186801F07E
:1009800043FA03461A4607F59473A3F592731B685E
:1009900083F8402007F59473A3F592731B6893F8CE
:1009A0004030002B14D007F59473A3F592731B68A5
:1009B00004221A7007F59473A3F592731B68002242
:1009C0005A7005F0DDFF03462D4A136001F005B9AA
:1009D00007F59473A3F592731B6803221A7001F054
:1009E000FCB807F59473A3F592731B68DB6B40F6B4
:1009F000B732934241F2F08007F59473A3F59273F6
:100A00001B685B6C184601F07DF903461A4607F532
:100A10009473A3F592731B6883F8482007F59473C9
:100A2000A3F592731B6893F84830002B08D007F5A4
:100A30009473A3F592731B6808221A7001F0CCB866
:100A400007F59473A3F592731B6801229A7007F55A
:100A50009473A3F592731B6804221A7007F59473BC
:100A6000A3F592731B6800225A7005F089FF0346B4
:100A7000034A136001F0B0B844010020C4E900202B
:100A8000884F002050E4002007F59473A3F592737B
:100A90001B681B7C002B07D007F59473A3F592739A
:100AA0001B685B7C002B18D107F59473A3F5927338
:100AB0001B68002283F8842407F59473A3F59273CE
:100AC0001B68BD4AC3F8882407F59473A3F5927395
:100AD0001B68BA4AC3F88C2439E007F59473A3F570
:100AE00092731B685B7C012B18D107F59473A3F5F7
:100AF00092731B68002283F8842407F59473A3F58E
:100B000092731B68AC4AC3F8882407F59473A3F565
:100B100092731B68A94AC3F88C2418E007F59473F4
:100B2000A3F592731B68012283F8842407F594735C
:100B3000A3F592731B684FF00262C3F8882407F58F
:100B40009473A3F592731B689D4AC3F88C2407F530
:100B50009473A3F592731B6805221A7001F03DB8D7
:100B60000023C7F89C3007F59473A3F592731B68B4
:100B7000D3F88834C7F8C43007F59473A3F592739B
:100B80001B68D3F88C34C7F8C030D7F8C43003F1F1
:100B900078435B0BC7F8BC30D7F8C03003F178431B
:100BA0005B0BC7F8B8300223C7F8A0300123C7F8A1
:100BB000A430D7F8BC30C7F8A830D7F8B820D7F899
:100BC000BC30D31A0133C7F8AC3006F02BF907F16B
:100BD0009C0207F1A0031146184606F021FA0346CD
:100BE000002B11D006F040F907F59473A3F592732A
:100BF0001B6803229A7007F59473A3F592731B6820
:100C00000A221A7000F0E9BF06F02EF907F5947376
:100C1000A3F592731B68D7F8C4209A6507F59473FF
:100C2000A3F592731B68D7F8C420DA6507F59473AF
:100C3000A3F592731B68DB6C002B06D007F5947349
:100C4000A3F592731B68DB6C00E05E4B07F59472B2
:100C5000A2F592721268536607F59473A3F5927326
:100C60001B6840F20C421A6607F59473A3F5927361
:100C70001B6806221A7007F59473A3F592731B681C
:100C800000225A7000F0A9BF07F59473A3F5927380
:100C90001B685B78092B00F21B8601A252F823F037
:100CA000C90C0008290D0008510E0008DF110008CA
:100CB000631200084914000827150008731600087D
:100CC000D11800080F1800083F4B03F5405393F864
:100CD000A43A002B00F0FE853B4B03F54053002265
:100CE00083F8A42A384B03F5405393F8A63A602BB7
:100CF00012D1354B03F5405393F8AA3A102B0BD180
:100D000007F59473A3F592731B6801225A7005F0DE
:100D100037FE03462D4A136044F63E6200212A48FE
:100D20000DF064FF00F0D6BD294B00221A60284B5D
:100D300000225A73264B00225A6007F59473A3F5DC
:100D400092731B68DA6B214B1B68D31A002BB8BF58
:100D50005B42632B40F3C08505F012FE03461B4A3D
:100D6000136007F59473A3F592731B681B7C012B2A
:100D700002D0022B04D007E0012387F8943007E06B
:100D8000022387F8943003E0002387F8943000BFF3
:100D900007F59473A3F592731B685B7C012B02D05B
:100DA000022B04D016E0012387F8953016E00223C9
:100DB00087F8953012E000BF00000408FFFF1F080D
:100DC000FFFF3B0800581B0044010020884F002013
:100DD000CC9D0020002387F8953000BF07F19403D5
:100DE0000093022300221121602002F0C5F903467E
:100DF000C54A1046194642F21A731A460DF022FFF0
:100E0000C14B03F58053B3F888331946BE4802F04E
:100E1000A1F9034687F8CB3097F8CB30002B08D0E8
:100E2000B94B03F58053B3F888331946B64802F03E
:100E300091F944F63E620021B3480DF0D7FE07F564
:100E40009473A3F592731B6802225A7000F044BD9C
:100E5000AE4B00221A60AD4B00225A73AB4B0022FE
:100E60005A60A94B03F5405393F8A43A002B00F0C5
:100E70003585A54B03F54053002283F8A42A05F0DD
:100E80007FFD0346A24A13609F4B03F5405393F83E
:100E9000A63A602B40F082809B4B03F5405393F8B9
:100EA000AA3A122B7AD19B4BC7F8F030964B03F538
:100EB0004053B3F8AC3A0C2B68D907F59473A3F5FB
:100EC00092731B684C33C7F8EC30D7F8F0301B78BE
:100ED0001A46D7F8F03001331B781B021A43D7F8B3
:100EE000F03002331B781B041A43D7F8F030033379
:100EF0001B781B061A43D7F8EC301A60D7F8F0308D
:100F000004331B781A46D7F8F03005331B781B02E0
:100F10001A43D7F8F03006331B781B041A43D7F86E
:100F2000F03007331B781B061A43D7F8EC305A60B1
:100F3000D7F8F03008331A78D7F8EC301A72D7F8AF
:100F4000F030DA7AD7F8EC305A72D7F8F0309A7A73
:100F5000D7F8EC309A72D7F8F0305A7AD7F8EC30EC
:100F6000DA7207F59473A3F592731B68D7F8EC2037
:100F7000553309321188927819809A7007F5947365
:100F8000A3F592731B6803225A7027E107F5947347
:100F9000A3F592731B6808225A701FE15A4B03F5A0
:100FA000405393F8A63A602B40F09884564B03F5D3
:100FB000405393F8AA3A162B40F090840023C7F8C8
:100FC0008030554BC7F8E830544BC7F8E430D7F8B9
:100FD000E83003F178435B0BC7F8E030D7F8E43032
:100FE00003F178435B0BC7F8DC300223C7F8843089
:100FF0000123C7F88830D7F8E030C7F88C30D7F82D
:10100000DC20D7F8E030D31A0133C7F8903005F070
:1010100009FF07F1800207F184031146184605F025
:10102000FFFF0346002B0AD005F01EFF07F594735F
:10103000A3F592731B6803229A7000F0CEBD05F0F1
:1010400013FF4FF00263C7F8D830354BC7F8D430E0
:10105000D7F8D83003F178435B0BC7F8D030D7F816
:10106000D43003F178435B0BC7F8CC300223C7F8C8
:1010700084300123C7F88830D7F8D030C7F88C30D7
:10108000D7F8CC20D7F8D030D31A0133C7F8903036
:1010900005F0C8FE07F1800207F1840311461846E7
:1010A00005F0BEFF0346002B0AD005F0DDFE07F574
:1010B0009473A3F592731B6803229A7000F08DBDA0
:1010C00005F0D2FE07F140033422002118460DF04E
:1010D0008DFD144B3B6407F59473A3F592731B6865
:1010E0009B68B3F1FF3F1FD007F59473A3F592738C
:1010F0001B689B68002B17D007F59473A3F59273B8
:101100001B689B68013310E044010020CC9D002047
:10111000884F0020F23B002000000408FFFF1F085A
:10112000FFFF3B084154454D01237B64002387F8B2
:101130005430002387F8643000233B65012387F88F
:101140004C30022387F84D30032387F84E30B648E1
:1011500000F086FF07F14003184601F01BF9034633
:1011600083F00103DBB2002B0FD007F59473A3F5D6
:1011700092731B6803229A7007F59473A3F5927318
:101180001B680A221A7000F028BD07F59473A3F5B6
:1011900092731B681C1D07F140050FCD0FC40FCDC6
:1011A0000FC40FCD0FC42B68236007F59473A3F50C
:1011B00092731B68002283F8842407F59473A3F5C7
:1011C00092731B68994AC3F8882407F59473A3F5B2
:1011D00092731B68964AC3F88C247FE37EE305F084
:1011E000CFFB0346934A1360934B00221A60924B45
:1011F00000225A73904B00225A6007F59473A3F5AE
:1012000092731B68DB6C8D4A934222D807F5947366
:10121000A3F592731B6804225A7007F59473A3F523
:1012200092731B68012283F8402007F59473A3F59D
:1012300092731B6800229A6507F59473A3F5927365
:101240001B68DA6C07F59473A3F592731B685A66F2
:1012500049E307F59473A3F592731B6808225A704B
:1012600041E305F08DFB0346724A136007F5947362
:10127000A3F592731B68DB6B714A136007F59473D7
:10128000A3F592731B6893F84030002B00F028837D
:1012900007F59473A3F592731B6893F8413083F0BC
:1012A0000103DBB2002B00F01B8307F59473A3F559
:1012B00092731B68002283F8402007F59473A3F50E
:1012C00092731B68012283F8412007F59473A3F5FC
:1012D00092731B685B6EB3F5806F08D307F5947348
:1012E000A3F592731B684FF480621A660BE007F552
:1012F0009473A3F592731B685A6E07F59473A3F564
:1013000092731B681A6607F1780300221A605A600C
:101310000823A7F8F63007F59473A3F592731B68BA
:101320009B6D1B0EDBB287F8783007F59473A3F53D
:1013300092731B689B6D1B0CDBB287F8793007F545
:101340009473A3F592731B689B6D1B0ADBB287F83D
:101350007A3007F59473A3F592731B689B6DDBB22B
:1013600087F87B3007F59473A3F592731B681B6EA7
:101370001B0EDBB287F87C3007F59473A3F59273EC
:101380001B681B6E1B0CDBB287F87D3007F594736E
:10139000A3F592731B681B6E1B0ADBB287F87E30C5
:1013A00007F59473A3F592731B681B6EDBB287F885
:1013B0007F30B7F8F62007F1780300931346002238
:1013C0001321602001F0D8FE03461E4A104619463C
:1013D00042F21A731A460DF035FC1A4B03F580538E
:1013E000B3F888331946174801F0B4FE034687F86E
:1013F000F53097F8F530002B08D0124B03F58053E9
:10140000B3F8883319460F4801F0A4FE44F63E6253
:1014100000210C480DF0EAFB07F59473A3F59273D5
:101420001B6805225A705BE200003C0800000408BB
:10143000FFFF1F08884F0020CC9D002000581B0094
:10144000844F00204401002007F59473A3F59273A4
:101450001B68602283F8A02407F59473A3F59273A8
:101460001B68002283F8AC2407F59473A3F59273EC
:101470001B68602283F8B82407F59473A3F5927370
:101480001B6803F59363184601F0F4F8BC4B03F5B1
:10149000405393F8A43A002B00F0248205F070FA30
:1014A0000346B84A1360B64B03F54053002283F855
:1014B000A42AB34B03F5405393F8A63A602B40F0AF
:1014C0001182AF4B03F5405393F8AA3A142B40F026
:1014D0000982AD4BC7F8F830A94B03F54053B3F878
:1014E000AC3A1A4607F59473A3F592731B681B6E0A
:1014F0009A42C0F0F78107F59473A3F592731B68C5
:1015000068339F4A02F54052B2F8AC2AD7F8F81077
:10151000184600F094FB07F59473A3F592731B68CB
:1015200006225A70DEE107F59473A3F592731B68E7
:1015300003F1680007F59473A3F592731B68B3F881
:101540007834194607F59473A3F592731B68D3F8A2
:101550007C341A4600F04EFD0346002B17D007F5E9
:101560009473A3F592731B68002283F8812407F516
:101570009473A3F592731B68002283F8802407F507
:101580009473A3F592731B6807225A702EE007F537
:101590009473A3F592731B68012283F8802407F5E6
:1015A0009473A3F592731B6893F881340133DAB214
:1015B00007F59473A3F592731B6883F8812407F5EC
:1015C0009473A3F592731B6893F88134032B0DD9A0
:1015D00007F59473A3F592731B6808225A7007F5F8
:1015E0009473A3F592731B680A221A70002387F87C
:1015F00098300123A7F8FE3007F59473A3F5927392
:101600001B6893F8803487F89830B7F8FE2007F10C
:1016100098030093134600221521602001F0ACFDD1
:101620000346574A1046194642F21A731A460DF0FD
:1016300009FB534B03F58053B3F8883319465048E0
:1016400001F088FD034687F8FD3097F8FD30002B48
:1016500008D04B4B03F58053B3F8883319464848FC
:1016600001F078FD44F63E62002145480DF0BEFAD7
:1016700039E107F59473A3F592731B68FF2283F891
:10168000A02407F59473A3F592731B68FF2283F8D7
:10169000AC2407F59473A3F592731B68FF2283F8BB
:1016A000B82407F59473A3F592731B6803F593634D
:1016B000184600F0DFFF002387F82131002387F868
:1016C000203107F59473A3F592731B68D3F888242F
:1016D00007F59473A3F592731B68D3F8743413441D
:1016E000C7F800311AE007F59473A3F592731B68ED
:1016F00003F1680107F59473A3F592731B68B3F8BF
:1017000078341A46D7F8000100F0D5FC034687F874
:10171000213197F82031013387F8203197F82131B2
:1017200083F00103DBB2002B03D097F82031022BAA
:10173000D9D907F59473A3F592731B68012283F836
:10174000402007F59473A3F592731B68002283F879
:10175000412097F8213183F00103DBB2002B15D033
:1017600007F59473A3F592731B6803229A7007F52B
:101770009473A3F592731B680A221A70B3E000BF3A
:1017800044010020884F0020F23B002007F59473AD
:10179000A3F592731B685B6E07F59472A2F59272C3
:1017A0001268B2F878249A1A07F59473A3F5927325
:1017B0001B685A6607F59473A3F592731B68D3F8F8
:1017C000743407F59472A2F592721268B2F8782414
:1017D0001A4407F59473A3F592731B689A6507F58D
:1017E0009473A3F592731B685B6E002B07D107F50A
:1017F0009473A3F592731B6809225A7073E007F57E
:101800009473A3F592731B6804225A706BE0002353
:10181000C7F808310023C7F8043107F59473A3F51E
:1018200092731B681B6DC7F8043107F59473A3F519
:1018300092731B68D3F888341A4607F59473A3F59E
:1018400092731B68DB6C1946104600F097FBC7F8D3
:101850000801D7F80821D7F804319A420ED007F5CD
:101860009473A3F592731B6804229A7007F594731E
:10187000A3F592731B680A221A70AEE107F5947300
:10188000A3F592731B68602283F8A02407F5947374
:10189000A3F592731B68002283F8AC2407F59473B8
:1018A000A3F592731B68602283F8B82407F594733C
:1018B000A3F592731B6803F59363184600F0DAFEF4
:1018C00007F59473A3F592731B6807221A700AE058
:1018D00000BF82E100BF80E100BF7EE100BF7CE18C
:1018E00000BF7AE100BF78E107F10C03184600F071
:1018F000FFFC034683F00103DBB2002B04D007F1A9
:101900000C03184600F084FD07F59473A3F58E735D
:1019100007F140041D460FCD0FC40FCD0FC40FCDEE
:101920000FC42B6823600023BB6407F1400304331A
:101930003021184600F022FBC7F8180107F5947310
:10194000A3F58E731B68A74A934208D107F59473D9
:10195000A3F58E739B68D7F818219A4204D007F13B
:101960000C03184600F054FD07F59473A3F58E732D
:101970005B7B87F8173197F81731002B0ED107F5ED
:101980009473A3F592731B6801229A7007F5947300
:10199000A3F592731B680A221A701EE107F594736F
:1019A000A3F58E7397F817211A7397F81731012B47
:1019B00001D1022200E0012207F59473A3F58E7392
:1019C0005A7307F59473A3F58E7300229A7307F583
:1019D0009473A3F58E735B685A1C07F59473A3F593
:1019E0008E735A6007F59473A3F58E7300221A6103
:1019F00097F81731012B03D107F10C03143302E0E0
:101A000007F10C032433C7F8103107F59473A3F5DD
:101A100092731B68DA6CD7F810315A6007F594732B
:101A2000A3F592731B681A6DD7F810319A6007F509
:101A30009473A3F592731B6893F85520D7F810316F
:101A40001A7307F59473A3F592731B6893F85620E5
:101A5000D7F810315A7307F59473A3F592731B6886
:101A600093F85720D7F810319A73D7F81031012224
:101A70001A7007F10C03184600F08CFC034687F837
:101A80000F3197F80F3183F00103DBB2002B0ED03A
:101A900007F59473A3F592731B6803229A7007F5F8
:101AA0009473A3F592731B680A221A7095E007F5E8
:101AB0009473A3F58E731B7B022B08D107F59473E7
:101AC000A3F592731B684FF002625A6406E007F5B3
:101AD0009473A3F592731B68434A5A6407F1740325
:101AE00000210A461A800A469A7007F59473A3F5F6
:101AF00092731B6893F8553087F8743007F5947328
:101B0000A3F592731B6893F8563087F8753007F584
:101B10009473A3F592731B6893F8573087F8763067
:101B200007F17402032300213048FEF7E1FB002394
:101B30000093002300222121602001F01DFB0346B9
:101B40002B4A1046194642F21A731A460DF07AF8DB
:101B5000274B03F58053B3F888331946244801F026
:101B6000F9FA034687F80E3197F80E31002B08D0AA
:101B70001F4B03F58053B3F8883319461C4801F016
:101B8000E9FA44F63E62002119480DF02FF807F5F6
:101B90009473A3F592731B6808221A701DE04FF42A
:101BA0007A7004F0F9FE07F59473A3F59273186840
:101BB00000F022F807F59473A3F592731B680A22CC
:101BC0001A700AE0002202210A4805F0E7FC01E051
:101BD00000BF02E000BF00E000BF07F59477BD46FC
:101BE000B0BD00BF4154454D00000408C4E90020C9
:101BF000440100200010024280B582B000AF78603E
:101C00007B68002B01D1002315E07B685B6C1846D4
:101C100000F078F8034683F00103DBB2002B04D018
:101C20007B6801229A70002305E07B685B6C184694
:101C300000F09AF8012318460837BD4680BD80B4ED
:101C400087B000AFF860B9601346FB80BB681B78B3
:101C50001A06BB6801331B781B041A43BB680233A6
:101C60001B781B021343BA68033212781A43FB68CD
:101C7000C3F80C24BB6806331B781B029BB2BA68FE
:101C80000732127813439AB2FB68A3F8102400239A
:101C90007B610CE07B690833BA6813441978FA68F1
:101CA0007B6913440A461A707B6901337B61FB68C8
:101CB000B3F810341A467B699342EBD3FB88043B9C
:101CC000BA6813441B781A06FB88033BB9680B44B7
:101CD0001B781B041A43FB88023BB9680B441B7832
:101CE0001B021343FA88013AB9680A4412781A436E
:101CF000FB68C3F8142400BF1C37BD465DF8047BA5
:101D00007047000080B485B000AF78607B681B68C6
:101D1000FB607B6804331B68BB60FB68B3F1005F4A
:101D200003D3FB680F4A934201D9002313E0BA683A
:101D30007B689A4205D37B6803F50013BA689A4220
:101D400001D9002307E0BB6803F00103002B01D198
:101D5000002300E0012318461437BD465DF8047BDC
:101D6000704700BF0000272080B586B000AF7860C4
:101D70007B681B683B617B6804331B68FB6072B641
:101D800000BF1E4B00221A601C4B00225A601B4BE6
:101D900000229A6004F022FD00237B6110E0184AC3
:101DA0007B6920334FF0FF3142F82310144A7B69DE
:101DB00060334FF0FF3142F823107B6901337B61C0
:101DC0007B690F2BEBD90F4A7B689360BFF34F8F72
:101DD00000BFBFF36F8F00BF3B69BB60BB6883F37D
:101DE000088800BFBFF34F8F00BFBFF36F8F00BFE6
:101DF00062B600BFFB68984700BFFDE710E000E057
:101E000000E100E000ED00E080B588B000AF786050
:101E10000023FB770023BB777B68002B01D10023D5
:101E20003AE01F4800F07CF80346002B01D0012364
:101E3000BB7707F10C0319461A4800F037F8034640
:101E4000002B08D0FB68184A934204D13B7E012B3B
:101E500001D10123FB77BB7F83F00103DBB2002BB1
:101E600007D0FB7F83F00103DBB2002B01D00023FE
:101E700012E00B4800F070F80A4800F041F87B6867
:101E8000012283F840207B68002283F841207B6890
:101E90000622C3F89024012318462037BD4680BD92
:101EA00064E40020C4E9002055AA55AA80B582B098
:101EB00000AF786039603B68002B01D1002318E047
:101EC0003B681A4660217868FEF709FB0346002B41
:101ED00001D000230DE03B681B68084A934204D000
:101EE0003B6800221A73002303E03B6801221A7347
:101EF000012318460837BD4680BD00BF55AA55AA24
:101F000080B582B000AF78604FF0FF326021786812
:101F1000FEF76EFA034618460837BD4680BD00003E
:101F200080B584B000AF78607B68002B01D10023BE
:101F30000BE00A2178680AF003FAF860FB68054AAA
:101F4000934201D1012300E0002318461037BD461B
:101F500080BD00BFAA55AA5580B582B000AF786099
:101F60007B68002B05D000220A2178680AF0D0F99E
:101F700000E000BF0837BD4680BD000080B487B0D8
:101F800000AF786039604FF0FF337B6100233B6125
:101F900021E07A683B6913441B781A467B695340F9
:101FA0007B610023FB7310E07B6903F00103002BCE
:101FB00005D07B695A080E4B53407B6102E07B6978
:101FC0005B087B61FB7B0133FB73FB7B072BEBD94E
:101FD0003B6901333B613A693B689A42D9D37B69DB
:101FE000DB4318461C37BD465DF8047B704700BFD5
:101FF0002083B8ED80B586B000AFF860B9607A6034
:10200000FB68002B02D0BB68002B01D100230BE042
:10201000B968F868FFF7B2FF78617A697B689A421D
:1020200001D1012300E0002318461837BD4680BDCA
:1020300080B586B000AFF860B9607A60BB68002BED
:102040000AD07B68002B07D0FB687B617A687969CE
:10205000B8680CF0F7FD00E000BF1837BD4680BD42
:1020600080B588B000AF78600023BB607B6803F167
:1020700078435B0BFB6104F0D5FE0223FB60022377
:102080003B61FB697B610123BB6107F1080207F13A
:102090000C031146184604F0C3FF0346002B03D07F
:1020A00004F0E2FE002302E004F0DEFE0123184605
:1020B0002037BD4680BD80B58CB000AFF860B960F8
:1020C0007A60FB68FB620023BB62FB6A03F00F03CC
:1020D000002B01D0002337E004F0A4FE2DE007F12F
:1020E00014031022FF2118460CF080FD7A68BB6AA9
:1020F000D31A7B627B6A102B01D910237B62BA68EA
:10210000BB6AD11807F114037A6A18460CF09AFDDD
:1021100007F114031A46F96A012004F039FE034658
:10212000002B03D004F0A0FE00230DE0FB6A103367
:10213000FB62BA6A7B6A1344BB62BA6A7B689A42E2
:10214000CDD304F091FE012318463037BD4680BD43
:10215000B0B5A0B000AF7860012387F87F307B680E
:10216000002B7ED007F14003184600F0C1F807F1BC
:102170004003184600F09CF80346002B03D0786813
:1021800000F046F970E03B6C394A934202D00023DC
:1021900087F87F307B6C002B03D07B6CB3F1FF3F63
:1021A00002D1002387F87F3007F10C0407F14005C6
:1021B0000FCD0FC40FCD0FC40FCD0FC42B682360FC
:1021C00000237B6107F10C03043330211846FFF72D
:1021D000D5FEB867BB6CBA6F9A4202D0002387F86D
:1021E0007F3097F87F30002B37D07B681D4607F192
:1021F00040040FCC0FC50FCC0FC50FCC0FC5236803
:102200002B607B681B7B184600F0A6F90346184636
:1022100000F05CF9034683F00103DBB2002B22D00F
:102220007B685B7B184600F097F90346184600F080
:102230004DF90346002B0CD07B681B7B87F8773069
:102240007B685A7B7B681A737B6897F877205A7390
:1022500009E0786800F0DCF805E0786800F0D8F86C
:1022600002E000BF00E000BF8037BD46B0BD00BF48
:102270004154454DB0B590B000AF78607B6807F130
:102280000C041D460FCD0FC40FCD0FC40FCD0FC4CE
:102290002B68236000237B6107F10C03043330219A
:1022A0001846FFF76BFE034618464037BD46B0BDE3
:1022B00080B485B000AF78607B68BB600023FB60B2
:1022C0000CE0FB689B00BA6813441B68B3F1FF3F46
:1022D00001D0002306E0FB680133FB60FB680C2B98
:1022E000EFD9012318461437BD465DF8047B7047CB
:1022F00080B584B000AF78607B68002B01D10023EB
:102300003FE0342279682148FFF792FE7B681B6822
:102310001F4A934201D0002333E07868FFF7AAFFF9
:10232000F8607B689B68FA689A4201D0002328E035
:102330007B681B7B012B05D07B681B7B022B01D0AC
:1023400000231EE07B685B7B012B05D07B685B7BF9
:10235000022B01D0002314E07B681A7B7B685B7B37
:102360009A4201D100230CE07B689B7B012B02DCAD
:10237000002B04DA01E0032B01D0002301E000BFB1
:10238000012318461037BD4680BD00BF00003C0841
:102390004154454D80B582B000AF78607B68002B1A
:1023A00001D100232BE07B681B68174A934201D0C0
:1023B000002324E07B6800229A607B68043330218C
:1023C0001846FFF7DBFD02467B689A600F48FFF76F
:1023D00047FE034683F00103DBB2002B01D000234C
:1023E0000DE0342279680948FFF765FE034683F063
:1023F0000103DBB2002B01D0002300E001231846CB
:102400000837BD4680BD00BF4154454D00003C0823
:1024100080B584B000AF78603422002178680CF079
:10242000E5FB012000F098F80346184600F04EF84E
:102430000346FB73022000F08FF80346184600F0B5
:1024400045F80346BB737B681E4A1A607B6801220D
:102450005A60FB7B002B09D07B6801221A737B68D2
:1024600002225A737B6800229A7316E0BB7B002B12
:1024700009D07B6802221A737B6801225A737B6839
:1024800000229A7309E07B6800221A737B6800229D
:102490005A737B6803229A7310E07B6800229A606B
:1024A0007868FFF7E7FE02467B689A600648FFF708
:1024B000D7FD342279680448FFF7FDFD1037BD468B
:1024C00080BD00BF4154454D00003C0880B487B03A
:1024D00000AF78607B68B3F1006F03D37B68B3F122
:1024E000046F01D3002331E07B687B617B691B684B
:1024F0003B617B695B68FB603B69B3F1FF3F03D0E5
:10250000FB68B3F1FF3F01D100231FE03B69B3F14A
:10251000005F03D33B69B3F1015F01D3002315E0F2
:10252000FB6803F00103002B01D100230EE0FB68E0
:1025300023F00103BB60BB68B3F1006F03D3BB683A
:10254000B3F1046F01D3002300E0012318461C37C8
:10255000BD465DF8047B704780B483B000AF03468E
:10256000FB71FB79012B02D0022B02D004E0064B59
:1025700003E04FF0026300E0002318460C37BD462D
:102580005DF8047B704700BF0000040880B485B08C
:1025900000AFF860B9607A60FB68002B0BD07B68F5
:1025A000002B08D07B68FA681A607B68BA685A60AA
:1025B0007B6800221A7200BF1437BD465DF8047BA9
:1025C000704780B485B000AFF860B9607A60FB688E
:1025D000002B0BD07B68002B08D07B68FA681A6050
:1025E0007B68BA685A607B6800221A7200BF143791
:1025F000BD465DF8047B704780B485B000AFF860DD
:10260000B9607A60FB68002B0BD07B68002B08D088
:102610007B68FA681A607B68BA685A607B68002237
:102620001A7200BF1437BD465DF8047B704780B551
:1026300082B000AF78607B68002B17D07B681A6887
:102640007B685B681946104609F016FF7B68DA68FC
:102650007B681B691946104609F00EFF7B689A6972
:102660007B68DB691946104609F006FF00BF083792
:10267000BD4680BD80B483B000AF78607B68002B1E
:1026800000F0CC807B685B68002B06D17B681A7AEF
:102690007B681B681B685A6336E07B685B68042BA9
:1026A00007D17B68197A7B681B681A680B469363AD
:1026B0002AE07B685B68082B07D17B68197A7B6806
:1026C0001B681A680B46D3631EE07B685B680C2BA3
:1026D00007D17B68197A7B681B681A680B461364FC
:1026E00012E07B685B68102B07D17B68197A7B68E6
:1026F0001B681A680B46936406E07B68197A7B684E
:102700001B681A680B46D3647B681B69002B06D1D3
:102710007B681A7D7B68DB681B685A6336E07B68E0
:102720001B69042B07D17B68197D7B68DB681A68FD
:102730000B4693632AE07B681B69082B07D17B68F3
:10274000197D7B68DB681A680B46D3631EE07B68E3
:102750001B690C2B07D17B68197D7B68DB681A68C5
:102760000B46136412E07B681B69102B07D17B6852
:10277000197D7B68DB681A680B46936406E07B680A
:10278000197D7B68DB681A680B46D3647B68DB695C
:10279000002B07D17B6893F820207B689B691B681E
:1027A0005A633BE07B68DB69042B08D17B6893F8B4
:1027B00020107B689B691A680B4693632EE07B6848
:1027C000DB69082B08D17B6893F820107B689B6934
:1027D0001A680B46D36321E07B68DB690C2B08D1B8
:1027E0007B6893F820107B689B691A680B4613641A
:1027F00014E07B68DB69102B08D17B6893F820100C
:102800007B689B691A680B46936407E07B6893F8C2
:1028100020107B689B691A680B46D36400BF0C3795
:10282000BD465DF8047B704780B582B000AF78602C
:10283000204B03F5405393F8A53A092B35D801A254
:1028400052F823F06D280008732800087928000842
:102850007F280008852800088B2800089128000898
:10286000972800089D280008A328000800F024F8F5
:102870001CE000F047F819E000F076F816E000F0F0
:10288000C3F813E000F0C8F910E000F001FA0DE021
:1028900000F036FA0AE000F063FA07E000F0BAFA56
:1028A00004E0786800F0F6FA00E000BF00BF0837E7
:1028B000BD4680BD8C4F002080B400AF104B03F5A7
:1028C000405393F8A43A002B0DD10D4B03F5405320
:1028D000B3F8A23A002B06D1094B03F5405300226E
:1028E00083F8A52A06E0064B03F54053012283F83E
:1028F000A52A00BF00BFBD465DF8047B704700BF3E
:102900008C4F002080B500AF164B03F5005393F8B1
:102910001A37AA2B1CD0134B03F5005393F81B371F
:10292000552B15D000F016FB0E4B03F58043B3F882
:10293000383E43F002039AB20A4B03F58043A3F8F2
:10294000382E084B03F54053002283F8A52A06E0F1
:10295000044B03F54053022283F8A52A00BF00BFB1
:1029600080BD00BF8C4F002080B500AF254B03F524
:10297000005393F81C37522B31D0224B03F50053F0
:1029800093F81C37572B2AD01E4B03F5005393F8AE
:102990001C37582B23D01B4B03F5005393F81C37DF
:1029A000602B1CD0174B03F5005393F81C37592BA1
:1029B00015D000F0CFFA134B03F58043B3F8383E3F
:1029C00043F004039AB20F4B03F58043A3F8382E6B
:1029D0000C4B03F54053002283F8A52A10E0094B65
:1029E00003F5005393F81C27064B03F5405383F877
:1029F000A62A044B03F54053032283F8A52A00BFFF
:102A000000BF80BD8C4F002080B500AF804B03F528
:102A1000405393F8A63A523B0E2B00F2F68001A2E7
:102A200052F823F0612A00080B2C00080B2C000838
:102A30000B2C00080B2C0008C12A0008212B0008D1
:102A4000212B00080B2C00080B2C00080B2C000875
:102A50000B2C00080B2C00080B2C0008892B0008FD
:102A60006B4B03F5005393F81D37103B142B10D814
:102A7000674B03F5005393F81D27654B03F540534F
:102A800083F8A72A624B03F54053042283F8A52A52
:102A900015E000F05FFA5E4B03F58043B3F8383E73
:102AA00043F008039AB25A4B03F58043A3F8382E3B
:102AB000574B03F54053002283F8A52A00BFA5E039
:102AC000534B03F5005393F81D37403B182B10D898
:102AD0004F4B03F5005393F81D274D4B03F540531F
:102AE00083F8A82A4A4B03F54053042283F8A52A09
:102AF00015E000F02FFA464B03F58043B3F8383E5B
:102B000043F010039AB2424B03F58043A3F8382EEA
:102B10003F4B03F54053002283F8A52A00BF75E020
:102B20003B4B03F5005393F81D37612B02DC602B00
:102B300003DA13E0633B042B10D8354B03F5005345
:102B400093F81D27324B03F5405383F8A92A304BE5
:102B500003F54053042283F8A52A15E000F0FAF9A2
:102B60002B4B03F58043B3F8383E43F010039AB281
:102B7000274B03F58043A3F8382E254B03F540532C
:102B8000002283F8A52A00BF214B03F5005393F8D8
:102B90001D37103B122B8CBF01220022D2B2002A1B
:102BA0001CD11C4A22FA03F303F00103002B14BFCB
:102BB00001230023DBB2002B10D0154B03F500538B
:102BC00093F81D27124B03F5405383F8AA2A104BA4
:102BD00003F54053042283F8A52A15E000F0BAF962
:102BE0000B4B03F58043B3F8383E43F010039AB221
:102BF000074B03F58043A3F8382E054B03F54053EC
:102C0000002283F8A52A00BF00E000BF00BF80BDFE
:102C10008C4F0020D703050080B500AF1B4B03F598
:102C2000005393F81E37012B1CD0184B03F50053AB
:102C300093F81E37022B15D000F08CF9134B03F5D7
:102C40008043B3F8383E43F020039AB20F4B03F5AC
:102C50008043A3F8382E0D4B03F54053002283F830
:102C6000A52A10E0094B03F5005393F81E27074BE4
:102C700003F5405383F8AB2A044B03F54053052278
:102C800083F8A52A00BF00BF80BD00BF8C4F002085
:102C900080B400AF194B03F5005393F81F37002B96
:102CA0000DD1164B03F5005393F82037002B06D1B6
:102CB000124B03F54053072283F8A52A19E00F4B66
:102CC00003F5005393F81F371B029BB20B4A02F522
:102CD000005292F8202713439AB2084B03F5405351
:102CE000A3F8AC2A054B03F54053062283F8A52A26
:102CF00000BF00BFBD465DF8047B70478C4F0020CD
:102D000080B483B000AF0023FB8012E0FB88073360
:102D1000FA8812490B4403F51C531A3319780F4BE8
:102D2000134403F56A532E330A461A70FB880133A5
:102D3000FB800A4B03F54053B3F8AC3AFA889A4249
:102D4000E4D3064B03F54053072283F8A52A00BFBE
:102D50000C37BD465DF8047B704700BF8C4F0020E8
:102D600080B582B000AF0223FB8015E0284B03F54D
:102D7000804393F8362EFB8825490B4403F51C53FA
:102D80001A331B785340DAB2214B03F5804383F8A2
:102D9000362EFB880133FB801D4B03F54053B3F8FF
:102DA000AC3A9A1DFB889A42E0DA194B03F540537E
:102DB000B3F8AC3A0733164A134403F51C531A33DD
:102DC0001A78134B03F5804393F8363E9A4215D098
:102DD00000F0C0F80E4B03F58043B3F8383E43F0E3
:102DE00080039AB20A4B03F58043A3F8382E084BB0
:102DF00003F54053002283F8A52A05E0044B03F5B0
:102E00004053082283F8A52A00BF0837BD4680BD7D
:102E10008C4F002080B500AF1D4B03F54053B3F835
:102E2000AC3A08331A4A134403F51C531A331B787F
:102E3000552B23D0164B03F54053B3F8AC3A093366
:102E4000134A134403F51C531A331B78AA2B15D0CD
:102E500000F080F80E4B03F58043B3F8383E43F49E
:102E600080739AB20A4B03F58043A3F8382E084BBF
:102E700003F54053002283F8A52A06E0044B03F52E
:102E80004053092283F8A52A00BF00BF80BD00BFC0
:102E90008C4F002080B582B000AF78602C4B03F5DA
:102EA000405393F8A63A522B08D1294B03F54053CF
:102EB000002283F8A52A00F04DF844E0244B03F5E6
:102EC000405393F8A63A572B08D1214B03F54053B2
:102ED000002283F8A52A00F03DF834E01C4B03F5EE
:102EE000405393F8A63A582B08D1194B03F5405399
:102EF000002283F8A52A00F02DF824E0144B03F5F6
:102F0000405393F8A63A592B08D1114B03F540537F
:102F1000002283F8A52A00F01DF814E00C4B03F5FD
:102F2000405393F8A63A602B0DD144F63E6208490F
:102F300078680BF087FE064B03F54053002283F8B8
:102F4000A52A00F007F800BF0837BD4680BD00BFC6
:102F50008C4F002080B500AF41F2883200210B4831
:102F60000BF044FE41F29232002109480BF03EFE84
:102F7000084B03F54053002283F8A42A054B03F5C0
:102F800040530022A3F8A22A00BF80BDA6760020ED
:102F9000328A00208C4F002080B485B000AF78606A
:102FA00039603B68012B02D84FF0FF331BE0002350
:102FB000FB6011E07A68FB6813441B78AA2B08D1E8
:102FC000FB6801337A6813441B78552B01D1FB68E9
:102FD00009E0FB680133FB603B68013BFA689A42F9
:102FE000E8D34FF0FF3318461437BD465DF8047B35
:102FF0007047000080B584B000AF786039603B68EE
:103000001B68FB607B68002B00F095803B68002B01
:1030100000F091804A4B1B680133494A1360FB68FA
:103020009AB2474B5A81464B1B899BB21033444A94
:1030300013440133FA68796818460BF003FE404BDD
:103040005B899AB23E4B1B899BB213449AB23C4BAC
:103050001A813B4B1B7BDBB2002B19D1F968394835
:10306000FFF79AFF0346B3F1FF3F11D0344B012223
:103070001A73334B9B7DDBB21BB21B021AB2304B6F
:10308000DB7DDBB21BB213431BB29AB22E4B1A800C
:103090002D4B1B880A332A4A128992B293420CD1D3
:1030A000274B1B899BB21A46254B5A60244B0022A2
:1030B0001A73234B01225A7316E0234B1B880A33E1
:1030C0001F4A128992B293420EDA1D4B00225A73A4
:1030D0001B4B00221A601A4B00221A81184B002247
:1030E0001A73174B00225A81154B5B7BDBB2002B06
:1030F00022D0134B5B681A46124914480BF0A2FD0C
:103100000F4B5B689AB2124B03F54053A3F8A22A07
:103110000F4B03F54053012283F8A42A084B0022E9
:103120005A73074B00221A60054B00221A81044B88
:1031300000221A7300E000BF1037BD4680BD00BFFB
:10314000CC9D0020DD9D0020E0A50020A67600207B
:103150008C4F002080B584B000AF78600B467B8038
:103160007B881946786802F08FF90346FB73FB7B76
:1031700018461037BD4680BD90B585B000AF0446F7
:10318000084611461A462346FB710346BB710B469F
:103190007B7113467B800023FB81FB895A1CFA81DB
:1031A0001A46364BAA219954FB895A1CFA811A46B1
:1031B000324B55219954FB895A1CFA8119462F4AE2
:1031C000FB795354FB895A1CFA8119462B4ABB7967
:1031D0005354FB895A1CFA811946284A7B79535467
:1031E0007B881B0A99B2FB895A1CFA811A46C9B21C
:1031F000224B9954FB895A1CFA811A467B88D9B212
:103200001E4B99543B6A002B0ED07B88002B0BD0B1
:10321000FB891A4A13447A88396A18460BF012FD62
:10322000FA897B881344FB817B8805339BB219465E
:10323000134800F027F803467B73FB895A1CFA8178
:1032400019460E4A7B7B5354FB895A1CFA811A4655
:103250000A4B55219954FB895A1CFA811A46074B8F
:10326000AA219954054B03F580531A46FB89A2F80D
:103270008833024B18461437BD4690BDE4A50020A4
:10328000E6A5002080B485B000AF78600B467B8057
:103290000023FB730023BB8109E0BB897A681344D8
:1032A0001A78FB7B5340FB73BB890133BB81BA891E
:1032B0007B889A42F1D3FB7B18461437BD465DF8F4
:1032C000047B704780B584B000AF78600B46FB701C
:1032D0004FF4077002F000FDF860FB68002B09D185
:1032E0007B68D3F8D4227B68B032002143F82210E7
:1032F0000223D4E04FF407720021F8680BF076FC4B
:103300007B68D3F8D4227B68B032F96843F8221086
:103310007B68D3F8D4227B68B03253F822207B68D4
:10332000C3F8BC227B681B7C002B38D15E4B19781C
:103330004FF400730222786802F05DFB5A4B1B7851
:1033400003F00F02796813469B0013449B000B4463
:10335000243301221A80554B19784FF4007302224E
:10336000786802F048FB514B1B7803F00F02796834
:1033700013469B0013449B000B4403F5B2730122D8
:103380001A804B4B1B7803F00F02796813469B00A1
:1033900013449B000B44263310221A8035E0424B25
:1033A000197840230222786802F025FB3E4B1B78F7
:1033B00003F00F02796813469B0013449B000B44F3
:1033C000243301221A80394B19784023022278686D
:1033D00002F011FB354B1B7803F00F02796813469E
:1033E0009B0013449B000B4403F5B27301221A8027
:1033F0002F4B1B7803F00F02796813469B00134490
:103400009B000B44263310221A80294B197808237D
:103410000322786802F0EFFA254B1B7803F00F02C5
:10342000796813469B0013449B000B44243301220C
:103430001A80FB680022C3F804227B68D3F8D432D8
:103440007A68B0339B0013445B681B689847FB683D
:103450000022C3F81422FB680022C3F81822FB687C
:10346000D3F80432002B01D1022318E07B681B7CC7
:10347000002B0AD10D4B1978FB68D3F804224FF4C6
:103480000073786802F0A6FB08E0084B1978FB6827
:10349000D3F804224023786802F09CFB00231846EE
:1034A0001037BD4680BD00BF870000208800002087
:1034B0008900002080B582B000AF78600B46FB70B9
:1034C0003A4B1B781946786802F0BBFA374B1B78E9
:1034D00003F00F02796813469B0013449B000B44D2
:1034E000243300221A80324B1B781946786802F088
:1034F000A8FA2F4B1B7803F00F02796813469B0044
:1035000013449B000B4403F5B27300221A80294B2D
:103510001B781946786802F094FA264B1B7803F062
:103520000F02796813469B0013449B000B4424331D
:1035300000221A801F4B1B7803F00F027968134694
:103540009B0013449B000B44263300221A807B68A7
:10355000D3F8D4227B68B03253F82230002B1FD02E
:103560007B68D3F8D4327A68B0339B0013445B682D
:103570005B6898477B68D3F8D4227B68B03253F8F5
:103580002230184602F0B6FB7B68D3F8D4227B6861
:10359000B032002143F822107B680022C3F8BC221D
:1035A000002318460837BD4680BD00BF87000020B5
:1035B000880000208900002080B586B000AF7860C8
:1035C00039607B68D3F8D4227B68B03253F822305C
:1035D0003B6100237B7300237B810023FB753B69E8
:1035E000002B01D10323BFE03B681B7803F060038D
:1035F000002B50D0202B40F0AF803B68DB88002BA5
:103600003AD03B681B785BB2002B1BDA7B68D3F89F
:10361000D4327A68B0339B0013445B689B683A6885
:10362000507839693A68D28898473B68DB88072B1D
:1036300028BF0723FB813B69FA891946786801F0A6
:10364000E1FD90E03B685A783B6983F800223B68D3
:10365000DB883F2B03D83B68DB88DAB200E04022EE
:103660003B6983F8012239693B6993F801321A46B4
:10367000786801F0F3FD76E07B68D3F8D4327A689D
:10368000B0339B0013445B689B683A685078002213
:103690003968984767E03B685B780B2B51D801A2EB
:1036A00052F823F0D5360008513700084337000898
:1036B0004337000843370008433700084337000802
:1036C000433700084337000843370008FF36000837
:1036D000293700087B6893F89C32DBB2032B07D1B3
:1036E00007F10A0302221946786801F08BFD32E0E7
:1036F0003968786801F009FD0323FB752BE07B68CE
:1037000093F89C32DBB2032B07D107F10D030122A2
:103710001946786801F076FD1DE03968786801F097
:10372000F4FC0323FB7516E07B6893F89C32DBB254
:10373000032B0FD03968786801F0E7FC0323FB7591
:1037400008E03968786801F0E0FC0323FB7502E0CB
:1037500000BF08E000BF06E03968786801F0D5FCDA
:103760000323FB7500BFFB7D18461837BD4680BD9F
:1037700080B584B000AF78600B46FB707B68D3F8EF
:10378000C832FB607B68D3F8D4227B68B03253F830
:103790002230002B01D1032365E07B68D3F8D422CB
:1037A0007B68B03253F82230BB60FB7803F00F0225
:1037B000796813469B0013449B000B4418331B6825
:1037C000002B2FD0FB7803F00F02796813469B0083
:1037D00013449B000B4418331A68FB7803F00F0165
:1037E000F8680B46DB000B449B0003441C331B684A
:1037F000B2FBF3F101FB03F3D31A002B12D1FB78D8
:1038000003F00F02796813469B0013449B000B449E
:10381000183300221A60F97800230022786802F039
:10382000B8F91FE0BB680022C3F814227B68D3F804
:10383000D4327A68B0339B0013445B681B69002B59
:1038400010D07B68D3F8D4327A68B0339B0013442D
:103850005B681B69BA68D2F80802BA6802F504719D
:10386000FA789847002318461037BD4680BD80B5CA
:1038700084B000AF78600B46FB707B68D3F8D4222D
:103880007B68B03253F82230FB607B68D3F8D422D7
:103890007B68B03253F82230002B01D103231AE0A9
:1038A000FB781946786802F0B6F90246FB68C3F85F
:1038B0000C227B68D3F8D4327A68B0339B0013446F
:1038C0005B68DB68FA68D2F80402FA6802F50372F2
:1038D00011469847002318461037BD4680BD80B575
:1038E00084B000AF78607B68D3F8D4227B68B032B4
:1038F00053F82230FB60FB68002B01D1032324E046
:103900007B68D3F8D4327A68B0339B0013445B6889
:10391000002B19D0FB6893F80032FF2B14D07B6882
:10392000D3F8D4327A68B0339B0013445B689B6849
:10393000FA6892F80002F968FA6892F8012298474A
:10394000FB68FF2283F80022002318461037BD468B
:1039500080BD000080B586B000AF78608221184835
:1039600000F072FD78610121154800F06DFD3861AD
:103970008121134800F068FDF8607B69002B02D0BC
:103980007B6910229A713B69002B06D03B690022AB
:1039900042F040021A7100225A71FB68002B06D0D7
:1039A000FB68002242F040021A7100225A717B68C3
:1039B00043221A80024B18461837BD4680BD00BF0F
:1039C0004400002080B586B000AF7860822118489E
:1039D00000F03AFD78610121154800F035FD3861AD
:1039E0008121134800F030FDF8607B69002B02D084
:1039F0007B6910229A713B69002B06D03B6900223B
:103A00001A71002242F002025A71FB68002B06D0A4
:103A1000FB6800221A71002242F002025A717B6890
:103A200043221A80024B18461837BD4680BD00BF9E
:103A30004400002080B586B000AF7860822118482D
:103A400000F002FD78610121154800F0FDFC3861AD
:103A50008121134800F0F8FCF8607B69002B02D04C
:103A60007B6910229A713B69002B06D03B690022CA
:103A700042F040021A7100225A71FB68002B06D0F6
:103A8000FB68002242F040021A7100225A717B68E2
:103A900043221A80024B18461837BD4680BD00BF2E
:103AA0004400002080B483B000AF78607B680A22B5
:103AB0001A80034B18460C37BD465DF8047B7047EF
:103AC0000000002080B483B000AF786039603B68AC
:103AD000002B01D1032309E07B68D3F8D4327A6844
:103AE000B0339B0013443A685A60002318460C37E1
:103AF000BD465DF8047B704780B487B000AFF860C6
:103B0000B9607A60FB68D3F8D422FB68B03253F80E
:103B100022307B617B69002B01D1032308E07B69A4
:103B2000BA68C3F808227B697A68C3F810220023B8
:103B300018461C37BD465DF8047B704780B485B0DD
:103B400000AF786039607B68D3F8D4227B68B032EC
:103B500053F82230FB60FB68002B01D1032304E003
:103B6000FB683A68C3F80422002318461437BD46A0
:103B70005DF8047B7047000080B584B000AF7860CA
:103B80007B68D3F8D4227B68B03253F82230BB6014
:103B90000123FB73BB68002B01D1032325E0BB6825
:103BA000D3F81432002B1FD1BB680122C3F81422B2
:103BB000104B1B7803F00F02BB68D3F81012786823
:103BC00013469B0013449B00034418331960094BB0
:103BD0001978BB68D3F80822BB68D3F8103278682C
:103BE00001F0D7FF0023FB73FB7B18461037BD465F
:103BF00080BD00BF8700002080B584B000AF786032
:103C00007B68D3F8D4227B68B03253F82230FB6053
:103C10007B68D3F8D4227B68B03253F82230002B73
:103C200001D1032318E07B681B7C002B0AD10C4BCD
:103C30001978FB68D3F804224FF40073786801F018
:103C4000C9FF08E0064B1978FB68D3F8042240232B
:103C5000786801F0BFFF002318461037BD4680BDCD
:103C60008800002080B586B000AFF860B9601346C8
:103C7000FB71FB68002B01D103231FE0FB680022CE
:103C8000C3F8B822FB680022C3F8C422FB680022F4
:103C9000C3F8D022BB68002B03D0FB68BA68C3F816
:103CA000B422FB68012283F89C22FB68FA791A701F
:103CB000F86801F033FE0346FB75FB7D18461837A4
:103CC000BD4680BD80B584B000AF78603960002308
:103CD000FB813B68002B01D1032325E07B683A6818
:103CE000C3F8B8227B68D3F8D4227B68AE3253F88D
:103CF0002230DB6A002B0FD07B68D3F8D4227B689C
:103D0000AE3253F82230DB6A07F10E0210469847B4
:103D100002467B68C3F8D0227B68D3F8D8325A1C9D
:103D20007B68C3F8D822002318461037BD4680BDF3
:103D300080B584B000AF78600023FB6019E07B6839
:103D4000FA68AE3253F822301B68002B0ED0FA68A6
:103D50007B68C3F8D4227B68FA68AE3253F822300D
:103D60001B68FA68D2B2114678689847FB6801333D
:103D7000FB607B68D3F8D822FB689A42DFD878686A
:103D800001F01EFE034618461037BD4680BD80B4C4
:103D900083B000AF7860002318460C37BD465DF84D
:103DA000047B704780B584B000AF78600B46FB7031
:103DB0000023FB737B68D3F8B832002B09D07B68F3
:103DC000D3F8B8321B68FA781146786898470346EA
:103DD000FB73FB7B18461037BD4680BD80B584B0B1
:103DE00000AF78600B46FB700023FB737B68D3F851
:103DF000B8325B68FA781146786898470346002B1A
:103E000001D00323FB73FB7B18461037BD4680BDF2
:103E100080B584B000AF786039607B6803F2AA2374
:103E20003968184601F037F97B680122C3F89422FB
:103E30007B68B3F8B0321A467B68C3F898227B6877
:103E400093F8AA3203F01F03022B1AD0022B22D8B8
:103E5000002B02D0012B0AD01DE07B6803F2AA23BD
:103E60001946786800F064FB0346FB7320E07B682A
:103E700003F2AA231946786800F0CCFB0346FB73D3
:103E800016E07B6803F2AA231946786800F02EFC3E
:103E90000346FB730CE07B6893F8AA3223F07F03A0
:103EA000DBB21946786801F0EBFD0346FB7300BFF7
:103EB000FB7B18461037BD4680BD80B586B000AF8D
:103EC000F8600B467A60FB720023FB75FB7A002BCF
:103ED0006ED1FB6803F5AA733B61FB68D3F894329B
:103EE000032B40F098803B699A683B69DB689A42F3
:103EF00013D93B699A683B69DB68D21A3B699A60BF
:103F00003B69DA683B699B68934228BF13461A46AF
:103F10007968F86801F0BFF97DE0FB6893F8AA3290
:103F200003F01F03022B14D0022B1DD8002B02D04C
:103F3000012B03D018E00023BB7518E0FB68B3F831
:103F4000AE32DBB21946F86800F064FA0346BB757E
:103F50000DE0FB68B3F8AE32DBB21946F86800F04A
:103F600066FA0346BB7502E00023BB7500BFBB7D4C
:103F7000002B19D1FB6893F89C32DBB2032B13D1D1
:103F8000BA7DFB68AE3253F822301B69002B0BD090
:103F9000BA7DFB68C3F8D422BA7DFB68AE3253F811
:103FA00022301B69F8689847F86801F085F932E01B
:103FB000FB7A03F07F03DBB21946F86800F037FAAA
:103FC0000346BB75BB7DFF2B25D0BB7D002B22D1CB
:103FD000FB6893F89C32DBB2032B17D1BA7DFB68E8
:103FE000AE3253F822309B69002B0FD0BA7DFB68AC
:103FF000C3F8D422BA7DFB68AE3253F822309B69F5
:10400000FA7A1146F86898470346FB75FB7D002B4A
:1040100001D0FB7D00E0002318461837BD4680BD67
:1040200080B586B000AFF8600B467A60FB72FB7A11
:10403000002B6FD1FB6814333B61FB68D3F89432DB
:10404000022B5AD13B699A683B69DB689A4214D9C2
:104050003B699A683B69DB68D21A3B699A603B69A5
:104060009B681A467968F86801F0E7F80023002297
:104070000021F86801F0AEFD3FE03B69DA683B697A
:104080009B689A421CD13B695A683B69DB689A423B
:1040900016D33B695A68FB68D3F898329A420FD21C
:1040A00000220021F86801F0C8F8FB680022C3F87C
:1040B0009822002300220021F86801F08BFD1CE00B
:1040C000FB6893F89C32DBB2032B0FD1FB68D3F86B
:1040D000B832DB68002B09D0FB680022C3F8D42279
:1040E000FB68D3F8B832DB68F86898478021F86835
:1040F00001F0C6FCF86801F0F2F8FB6893F8A03212
:10410000002B3AD0F868FFF742FEFB68002283F8E4
:10411000A02232E0FB7A63F07F03DBB21946F86835
:1041200000F085F90346FB75FB7DFF2B25D0FB7D59
:10413000002B22D1FB6893F89C32DBB2032B1CD1FD
:10414000FA7DFB68AE3253F822305B69002B14D045
:10415000FA7DFB68C3F8D422FA7DFB68AE3253F8CF
:1041600022305B69FA7A1146F86898470346BB75B6
:10417000BB7D002B01D0BB7D00E000231846183723
:10418000BD4680BD80B584B000AF78600023FB736E
:104190007B68012283F89C227B680022C3F894226A
:1041A0007B6800225A607B680022C3F8A4227B68E7
:1041B000002283F8A0227B68D3F8B832002B14D0F9
:1041C0007B68D3F8B8325B68002B0ED07B68D3F8DD
:1041D000B8325B687A685268D2B2114678689847FC
:1041E0000346002B01D00323FB7340230022002150
:1041F000786801F000FC7B680122A3F864217B68E9
:104200004022C3F86021402300228021786801F019
:10421000F2FB7B6801229A847B6840221A62FB7B56
:1042200018461037BD4680BD80B483B000AF7860BB
:104230000B46FB707B68FA781A74002318460C371B
:10424000BD465DF8047B704780B483B000AF7860F2
:104250007B6893F89C32DBB2042B06D07B6893F822
:104260009C32DAB27B6883F89D227B68042283F853
:104270009C22002318460C37BD465DF8047B70472E
:1042800080B483B000AF78607B6893F89C32DBB277
:10429000042B06D17B6893F89D32DAB27B6883F8F1
:1042A0009C22002318460C37BD465DF8047B7047FE
:1042B00080B582B000AF78607B6893F89C32DBB247
:1042C000032B10D17B68D3F8B832002B0BD07B685E
:1042D000D3F8B832DB69002B05D07B68D3F8B8324D
:1042E000DB6978689847002318460837BD4680BDCB
:1042F00080B582B000AF78600B46FB707B68D3F866
:10430000D4227B68AE3253F82230002B01D1032334
:104310001CE07B6893F89C32DBB2032B15D17B68E1
:10432000D3F8D4227B68AE3253F822301B6A002BBC
:104330000BD07B68D3F8D4227B68AE3253F822309E
:104340001B6AFA78114678689847002318460837A0
:10435000BD4680BD80B582B000AF78600B46FB7073
:104360007B68D3F8D4227B68AE3253F82230002B1E
:1043700001D103231CE07B6893F89C32DBB2032B52
:1043800015D17B68D3F8D4227B68AE3253F8223043
:104390005B6A002B0BD07B68D3F8D4227B68AE32EB
:1043A00053F822305B6AFA78114678689847002300
:1043B00018460837BD4680BD80B483B000AF786032
:1043C000002318460C37BD465DF8047B704780B566
:1043D00084B000AF78600023FB737B68012283F810
:1043E0009C227B68D3F8B832002B0ED07B68D3F8C0
:1043F000B8325B687A685268D2B2114678689847DA
:104400000346002B01D00323FB73FB7B18461037B8
:10441000BD4680BD80B483B000AF78600B46FB70B2
:10442000002318460C37BD465DF8047B704780B406
:1044300083B000AF78600B46FB70002318460C3742
:10444000BD465DF8047B704780B586B000AF7860EC
:104450000B46FB707B687B617B68FB6000233B61E4
:10446000FB685B889BB2FA68127893421FD9FB689D
:104470001B787B8113E007F10A031946786900F085
:104480001BF878617B695B78052B08D17B693B6100
:104490003B699B78FA789A4208D000233B61FB681D
:1044A0005B889AB27B899A42E5D800E000BF3B69FD
:1044B00018461837BD4680BD80B485B000AF78601F
:1044C00039607B68FB603B681B88FA68127813448C
:1044D0009AB23B681A80FB681B781A467B681344C3
:1044E000FB60FB6818461437BD465DF8047B7047D7
:1044F00080B487B000AF78607B687B617B691B7894
:104500007B827B6901337B617B691B783B82B7F9D6
:1045100010301B021AB2B7F9123013431BB2FB81E1
:10452000FB8918461C37BD465DF8047B70470000C8
:1045300080B584B000AF786039600023FB733B68BE
:104540001B7803F06003402B05D0402B57D8002B7D
:104550000FD0202B53D17B68D3F8D4227B68AE32A6
:1045600053F822309B683968786898470346FB7394
:104570004AE03B685B78092B3BD801A252F823F054
:10458000D5450008E9450008F3450008DF45000867
:10459000F3450008B3450008A9450008F3450008A5
:1045A000CB450008BD4500083968786800F03CFA42
:1045B00024E03968786800F0CBFB1FE03968786840
:1045C00000F00AFC0346FB7318E03968786800F0D5
:1045D000ADFC13E03968786800F0DEFC0EE0396865
:1045E000786800F00DFD09E03968786800F031FD69
:1045F00004E03968786800F088FD00BF04E039689D
:10460000786800F082FD00BFFB7B18461037BD467E
:1046100080BD00BF80B584B000AF786039600023F2
:10462000FB733B681B7803F06003402B05D0402BE5
:1046300052D8002B01D0202B4ED17B6893F89C32AE
:10464000DBB2013B022B40D83B689B88DBB2012BDD
:1046500036D83B689B88DBB219467868FFF7DAFEEC
:104660000346BB73BB7BFF2B1DD0BB7B002B1AD13A
:10467000BA7B7B68AE3253F822309B68002B0FD098
:10468000BA7B7B68C3F8D422BA7B7B68AE3253F81E
:1046900022309B683968786898470346FB7304E0CA
:1046A0000323FB7301E00323FB733B68DB88002BD0
:1046B00010D1FB7B002B0DD1786800F0FDFD09E0E7
:1046C0003968786800F021FD04E03968786800F006
:1046D0001CFD00E000BF04E03968786800F015FDBB
:1046E00000BFFB7B18461037BD4680BD80B584B047
:1046F00000AF786039600023FB733B689B88BB7315
:104700003B681B7803F06003402B07D0402B00F27E
:104710007F81002B2AD0202B40F07A81BB7B194669
:104720007868FFF784FE03467B737B7BFF2B00F0EA
:1047300074817B7B002B40F070817A7B7B68C3F8AF
:10474000D4227A7B7B68AE3253F822309B68002BF0
:1047500000F063817A7B7B68AE3253F822309B682D
:104760003968786898470346FB7356E13B685B7885
:10477000032B08D0032B00F34581002B00F09B8016
:10478000012B3CD03EE17B6893F89C32DBB2022BDC
:1047900002D0032B16D02CE0BB7B002B0DD0BB7BB3
:1047A000802B0AD0BB7B1946786801F069F980211B
:1047B000786801F065F900BF20E03968786800F09A
:1047C000A4FC1BE03B685B88002B0ED1BB7B002B5D
:1047D0000BD0BB7B802B08D03B68DB88002B04D13F
:1047E000BB7B1946786801F04BF9786800F064FDEE
:1047F00004E03968786800F088FC00BF07E17B6856
:1048000093F89C32DBB2022B02D0032B16D04BE084
:10481000BB7B002B0DD0BB7B802B0AD0BB7B19460A
:10482000786801F02DF98021786801F029F900BF3E
:1048300040E03968786800F068FC3BE03B685B88E2
:10484000002B36D1BB7B03F07F03002B04D0BB7B56
:104850001946786801F033F9786800F02DFDBB7BCC
:1048600019467868FFF7E3FD03467B737B7BFF2BDC
:104870001FD07B7B002B1CD17A7B7B68C3F8D422B2
:104880007A7B7B68AE3253F822309B68002B10D0C5
:104890007A7B7B68AE3253F822309B68396878683F
:1048A00098470346FB7304E03968786800F02DFCF4
:1048B00000E000BFABE07B6893F89C32DBB2022BD8
:1048C00002D0032B32D097E0BB7B002B07D0BB7B01
:1048D000802B04D03968786800F017FC91E097F9D4
:1048E0000E30002B0BDABB7B03F07F0213469B00DC
:1048F00013449B0010337A68134404330BE0BB7BF2
:1049000003F07F0213469B0013449B0003F5A8733A
:104910007A6813440433BB60BB6800221A60BB682A
:1049200002221946786800F06DFC6AE097F90E30B3
:10493000002B11DABB7B03F00F02796813469B0052
:1049400013449B000B4424331B88002B17D1396878
:10495000786800F0DAFB54E0BB7B03F00F02796863
:1049600013469B0013449B000B4403F5B2731B8852
:10497000002B04D13968786800F0C7FB41E097F953
:104980000E30002B0BDABB7B03F07F0213469B003B
:1049900013449B0010337A68134404330BE0BB7B51
:1049A00003F07F0213469B0013449B0003F5A8739A
:1049B0007A6813440433BB60BB7B002B02D0BB7B03
:1049C000802B03D1BB6800221A600EE0BB7B194626
:1049D000786801F093F80346002B03D0BB680122EE
:1049E0001A6002E0BB6800221A60BB680222194606
:1049F000786800F007FC04E03968786800F085FB0F
:104A000000BF04E03968786800F07FFB00BF05E074
:104A10003968786800F079FB00E000BFFB7B18463E
:104A20001037BD4680BD000080B584B000AF78600F
:104A3000396000233B810023FB600023FB723B684D
:104A40005B881B0A9BB2013B0E2B00F2528101A234
:104A500052F823F0C54A0008DD4A00081D4B000843
:104A6000F34C0008F34C0008934C0008BF4C0008BE
:104A7000F34C0008F34C0008F34C0008F34C00081A
:104A8000F34C0008F34C0008F34C0008914A00086E
:104A90007B68D3F8B432DB69002B0BD07B68D3F88A
:104AA000B432DB697A68127C07F108011046984736
:104AB000F86026E13968786800F027FBFB7A01335B
:104AC000FB721EE17B68D3F8B4321B687A68127CF3
:104AD00007F1080110469847F86012E17B681B7CDB
:104AE000002B0DD17B68D3F8B8329B6A07F108021E
:104AF00010469847F860FB68013302221A7000E103
:104B00007B68D3F8B832DB6A07F108021046984791
:104B1000F860FB68013302221A70F2E03B685B88A0
:104B2000DBB2052B00F2AC8001A252F823F000BFEB
:104B3000494B00087D4B0008B14B0008E54B0008CD
:104B4000194C00084D4C00087B68D3F8B4325B6800
:104B5000002B0BD07B68D3F8B4325B687A68127C88
:104B600007F1080110469847F86091E039687868C5
:104B700000F0CBFAFB7A0133FB7289E07B68D3F853
:104B8000B4329B68002B0BD07B68D3F8B4329B689F
:104B90007A68127C07F1080110469847F86077E0C0
:104BA0003968786800F0B1FAFB7A0133FB726FE084
:104BB0007B68D3F8B432DB68002B0BD07B68D3F86A
:104BC000B432DB687A68127C07F108011046984716
:104BD000F8605DE03968786800F097FAFB7A013395
:104BE000FB7255E07B68D3F8B4321B69002B0BD005
:104BF0007B68D3F8B4321B697A68127C07F108012C
:104C000010469847F86043E03968786800F07DFA0C
:104C1000FB7A0133FB723BE07B68D3F8B4325B690B
:104C2000002B0BD07B68D3F8B4325B697A68127CB6
:104C300007F1080110469847F86029E0396878685C
:104C400000F063FAFB7A0133FB7221E07B68D3F852
:104C5000B4329B69002B0BD07B68D3F8B4329B69CC
:104C60007A68127C07F1080110469847F8600FE057
:104C70003968786800F049FAFB7A0133FB7207E083
:104C80003968786800F041FAFB7A0133FB7200BFA3
:104C900037E07B681B7C002B09D17B68D3F8B832E6
:104CA0005B6B07F1080210469847F86029E0396805
:104CB000786800F02AFAFB7A0133FB7221E07B6806
:104CC0001B7C002B0DD17B68D3F8B8321B6B07F12E
:104CD000080210469847F860FB68013307221A70F3
:104CE0000FE03968786800F010FAFB7A0133FB7244
:104CF00007E03968786800F008FAFB7A0133FB7244
:104D000000BFFB7A002B1ED13B68DB88002B16D03E
:104D10003B89002B0ED03B68DA883B89934228BF41
:104D200013469BB23B813B891A46F968786800F0CC
:104D300069FA09E03968786800F0E7F904E0786812
:104D400000F0BAFA00E000BF1037BD4680BD00BFDA
:104D500080B584B000AF786039603B689B88002BD9
:104D600031D13B68DB88002B2DD13B685B887F2BE2
:104D700029D83B685B88DBB203F07F03FB737B6859
:104D800093F89C32DBB2032B04D13968786800F0C9
:104D9000BCF91DE07B68FA7B83F89E22FB7B1946F9
:104DA000786800F0D7FE786800F086FAFB7B002B6D
:104DB00004D07B68022283F89C2209E07B680122F0
:104DC00083F89C2204E03968786800F09EF900BFFF
:104DD00000BF1037BD4680BD80B584B000AF78609D
:104DE00039600023FB733B685B88DAB24E4B1A7064
:104DF0004D4B1B78012B05D93968786800F085F98F
:104E000003238CE07B6893F89C32DBB2022B02D048
:104E1000032B29D075E0444B1B78002B20D0424B4C
:104E20001B781A467B685A603F4B1B781946786896
:104E3000FEF7B8FF0346FB73FB7B002B08D03968F5
:104E4000786800F062F97B68022283F89C2265E0B2
:104E5000786800F031FA7B68032283F89C225DE0D9
:104E6000786800F029FA59E02F4B1B78002B12D1FB
:104E70007B68022283F89C222B4B1B781A467B68A6
:104E80005A60294B1B7819467868FEF7A7FF7868A7
:104E900000F012FA42E0244B1B781A467B685B68EC
:104EA0009A422AD07B685B68DBB219467868FEF7C5
:104EB00095FF1D4B1B781A467B685A601A4B1B786E
:104EC00019467868FEF76EFF0346FB73FB7B002BE9
:104ED0000FD03968786800F018F97B685B68DBB23E
:104EE00019467868FEF77AFF7B68022283F89C22D5
:104EF00014E0786800F0E0F910E0786800F0DCF980
:104F00000CE03968786800F000F9074B1B78194607
:104F10007868FEF763FF0323FB7300BFFB7B184633
:104F20001037BD4680BD00BFFECC002080B582B0EA
:104F300000AF786039603B68DB88012B04D03968AA
:104F4000786800F0E2F823E07B6893F89C32DBB2EB
:104F5000022B02DC002B03DC15E0032B0BD012E04C
:104F60007B6800229A607B680833012219467868C2
:104F700000F048F90CE07B68043301221946786898
:104F800000F040F904E03968786800F0BEF800BF2E
:104F900000BF0837BD4680BD80B582B000AF7860E5
:104FA00039607B6893F89C32DBB2013B022B1ED840
:104FB0003B68DB88022B04D03968786800F0A5F8DC
:104FC0001AE07B680122DA607B68D3F8A432002BF8
:104FD00005D07B68DB6843F002027B68DA607B689F
:104FE0000C3302221946786800F00CF904E03968A5
:104FF000786800F08AF800BF00BF0837BD4680BD62
:1050000080B582B000AF786039603B685B88012B67
:1050100007D17B680122C3F8A422786800F04CF91C
:1050200013E03B685B88022B0BD13B689B881B0A13
:105030009BB2DAB27B6883F8A022786800F03CF972
:1050400003E03968786800F060F800BF0837BD46B3
:1050500080BD80B582B000AF786039607B6893F81E
:105060009C32DBB2013B022B0BD83B685B88012BE7
:105070000CD17B680022C3F8A422786800F01CF9E8
:1050800004E03968786800F040F800E000BF00BF35
:105090000837BD4680BD80B584B000AF7860396008
:1050A0003B68FB60FB681A787B681A70FB68013309
:1050B000FB60FB681A787B685A70FB680133FB6001
:1050C000F868FFF715FA03461A467B685A80FB68B2
:1050D0000133FB60FB680133FB60F868FFF708FAF7
:1050E00003461A467B689A80FB680133FB60FB68C5
:1050F0000133FB60F868FFF7FBF903461A467B684B
:10510000DA8000BF1037BD4680BD80B582B000AFE9
:10511000786039608021786800F0B2FC00217868FE
:1051200000F0AEFC00BF0837BD4680BD80B586B03C
:1051300000AFF860B9607A600023FB75FB68002B54
:1051400042D0FB683B61386900F042F80346013306
:105150005B00B3F5007F08D8386900F039F80346E2
:1051600001339BB25B009AB201E04FF400727B689E
:105170001A80FB7DBA6813447A6812781A70FB7D36
:105180000133FB75FB7DBA68134403221A70FB7D63
:105190000133FB7513E0FB7DBA6813443A6912785A
:1051A0001A703B6901333B61FB7D0133FB75FB7D6D
:1051B000BA68134400221A70FB7D0133FB753B690A
:1051C0001B78002BE7D100E000BF1837BD4680BD3B
:1051D00080B485B000AF78600023FB737B68BB6050
:1051E00005E0FB7B0133FB73BB680133BB60BB682D
:1051F0001B78002BF5D1FB7B18461437BD465DF8B4
:10520000047B704780B584B000AFF860B9607A6005
:10521000FB680222C3F89422FB687A689A61FB68F3
:105220007A68DA617B68BA680021F86800F0B1FC3E
:10523000002318461037BD4680BD80B584B000AF4E
:10524000F860B9607A607B68BA680021F86800F09D
:10525000A0FC002318461037BD4680BD80B584B041
:1052600000AFF860B9607A60FB680322C3F894224B
:10527000FB687A68C3F85821FB687A68C3F85C2138
:105280007B68BA680021F86800F0A4FC0023184687
:105290001037BD4680BD80B584B000AFF860B960FE
:1052A0007A607B68BA680021F86800F093FC0023FC
:1052B00018461037BD4680BD80B582B000AF78601B
:1052C0007B680422C3F8942200230022002178681E
:1052D00000F05FFC002318460837BD4680BD80B54E
:1052E00082B000AF78607B680522C3F89422002367
:1052F00000220021786800F06DFC00231846083772
:10530000BD4680BD80B500AF012212491248FEF7AC
:10531000A9FC0346002B01D000F0D2FF0F490E4834
:10532000FEF7D0FC0346002B01D000F0C9FF0C496A
:105330000948FEF7C7FB0346002B01D000F0C0FF71
:105340000548FEF7F5FC0346002B01D000F0B8FF3E
:1053500000BF80BDA000002000CD00200C00002078
:105360008C00002080B500AF002205490548FEF7FB
:10537000C3FB05490348FEF7E1FB0023184680BD47
:10538000DCD7002000CD0020DCCF002080B400AFAF
:1053900000231846BD465DF8047B704780B483B097
:1053A00000AF03463960FB711346BB80FB79232BAA
:1053B0004AD801A252F823F0495400084954000881
:1053C0004954000849540008495400084954000849
:1053D0004954000849540008495400084954000839
:1053E0004954000849540008495400084954000829
:1053F0004954000849540008495400084954000819
:105400004954000849540008495400084954000808
:1054100049540008495400084954000849540008F8
:1054200049540008495400084954000849540008E8
:1054300049540008495400084954000849540008D8
:10544000495400084954000800BF002318460C378F
:10545000BD465DF8047B704780B582B000AF7860D0
:10546000396039687868FDF7C5FD79680548FEF749
:1054700065FB0448FEF7C0FB002318460837BD460D
:1054800080BD00BF00CD002080B584B000AF786043
:105490000B467B800023FB730D4BD3F8BC32BB6003
:1054A000BB68D3F81432002B01D001230BE07B88BA
:1054B0001A4679680648FEF71FFB0548FEF75CFBB5
:1054C0000346FB73FB7B18461037BD4680BD00BF0B
:1054D00000CD002080B487B000AFF860B9601346FB
:1054E000FB710023FB7597F9173018461C37BD4632
:1054F0005DF8047B7047000080B483B000AF0346C2
:105500003960FB713B6812221A80034B18460C3736
:10551000BD465DF8047B7047C000002080B483B0B6
:1055200000AF03463960FB713B6804221A80034BCD
:1055300018460C37BD465DF8047B7047E00000203C
:1055400080B582B000AF03463960FB71FB79002B58
:1055500005D13A6807490848FFF7E8FD04E03A68D2
:1055600004490548FFF7E2FD024B18460837BD46DF
:1055700080BD00BFDCDF00207CEC000880B582B07D
:1055800000AF03463960FB713A6804490448FFF7ED
:10559000CDFD024B18460837BD4680BDDCDF00203C
:1055A00094EC000880B582B000AF03463960FB710F
:1055B0003B681A221A8000F055F8024B184608374B
:1055C000BD4680BDE400002080B582B000AF034638
:1055D0003960FB71FB79002B05D13A68074908480F
:1055E000FFF7A4FD04E03A6804490548FFF79EFD73
:1055F000024B18460837BD4680BD00BFDCDF0020E7
:10560000A0EC000880B582B000AF03463960FB71A2
:10561000FB79002B05D13A6807490848FFF786FD5A
:1056200004E03A6804490548FFF780FD024B18463C
:105630000837BD4680BD00BFDCDF0020ACEC0008B1
:1056400080B483B000AF03463960FB713B680C2225
:105650001A80034B18460C37BD465DF8047B704733
:10566000D400002080B584B000AF0F4B1B68FB60F6
:105670000E4B1B68BB600E4B1B687B60FA687B6837
:105680001344FB60FB68002B09D008220949F86825
:1056900000F014F804220849B86800F00FF800BFC1
:1056A0001037BD4680BD00BF0007FA0B0407FA0B98
:1056B0000807FA0BE6000020F600002080B487B04F
:1056C00000AFF860B9601346FB710023FB7500233F
:1056D000FB7527E0FB681B0F092B0BD8FB681B0F22
:1056E000DAB2FB7D5B001946BB680B443032D2B2A4
:1056F0001A700AE0FB681B0FDAB2FB7D5B001946EB
:10570000BB680B443732D2B21A70FB681B01FB60D6
:10571000FB7D5B000133BA68134400221A70FB7DE5
:105720000133FB75FA7DFB799A42D3D300BF00BFEA
:105730001C37BD465DF8047B704780B582B000AF72
:1057400078607B68D3F8E0247B6803F29C431946B9
:105750001046FEF75DFB00BF0837BD4680BD80B533
:1057600082B000AF78600B46FB707B68D3F8E00432
:10577000FA7879681346DB0013449B000B4403F569
:1057800018731A68FB781946FEF797FB00BF0837B5
:10579000BD4680BD80B582B000AF78600B46FB701F
:1057A0007B68D3F8E004FA7879681346DB00134489
:1057B0009B000B4420331A68FB781946FEF730FC37
:1057C00000BF0837BD4680BD80B582B000AF7860AD
:1057D0007B68D3F8E0341846FEF76AFD00BF08374F
:1057E000BD4680BD80B584B000AF78600123FB73F7
:1057F0007B68DB79002B02D10023FB7308E07B6818
:10580000DB79022B02D10123FB7301E000F058FD8C
:105810007B68D3F8E034FA7B11461846FEF704FDA6
:105820007B68D3F8E0341846FEF7ACFC00BF1037B5
:10583000BD4680BD80B582B000AF78607B68D3F88C
:10584000E0341846FEF700FD7B681B6803F56063D3
:105850001B687A68126802F5606243F00103136006
:105860007B68DB7A002B05D0044B1B69034A43F0AD
:105870000603136100BF0837BD4680BD00ED00E0A0
:1058800080B582B000AF78607B68D3F8E03418460A
:10589000FEF7F6FC00BF0837BD4680BD80B582B07C
:1058A00000AF78600B46FB707B68D3F8E034FA7881
:1058B00011461846FEF74EFD00BF0837BD4680BDB5
:1058C00080B582B000AF78600B46FB707B68D3F880
:1058D000E034FA7811461846FEF70AFD00BF083793
:1058E000BD4680BD80B582B000AF78607B68D3F8DC
:1058F000E0341846FEF760FD00BF0837BD4680BDA6
:1059000080B582B000AF78607B68D3F8E034184689
:10591000FEF75DFD00BF0837BD4680BD80B582B093
:1059200000AF78607B681B78012B40D1224A7B68EE
:10593000C2F8E0347B68204AC3F8C8221E4B1F4AD5
:105940001A601D4B08221A711B4B0022DA711A4B88
:1059500000229A71184B03225A72174B00229A7236
:10596000154B0022DA72144B00221A73124B0022DC
:105970009A73114B0022DA730F4B00221A740E48EF
:1059800002F0CCFD0346002B01D000F099FC4FF44F
:105990000071094804F029F880220021064803F02C
:1059A000DDFF4FF4BA720121034803F0D7FF002353
:1059B00018460837BD4680BDE0E4002000000442E0
:1059C00080B584B000AF78600023FB730023BB7305
:1059D0007B68D3F8C832184602F0ACFE0346FB736E
:1059E000FB7B184600F090F90346BB73BB7B18465F
:1059F0001037BD4680BD80B584B000AF78600846E2
:105A000011461A460346FB700B46BB7013463B809B
:105A10000023FB730023BB737B68D3F8C802BB78F9
:105A20003A88F97803F0B4FB0346FB73FB7B184616
:105A300000F06AF90346BB73BB7B18461037BD46BE
:105A400080BD80B584B000AF78600B46FB7000234A
:105A5000FB730023BB737B68D3F8C832FA78114616
:105A6000184603F0FFFB0346FB73FB7B184600F070
:105A70004BF90346BB73BB7B18461037BD4680BD50
:105A800080B584B000AF78600B46FB700023FB73D9
:105A90000023BB737B68D3F8C832FA7811461846E6
:105AA00003F0B7FC0346FB73FB7B184600F02CF9B0
:105AB0000346BB73BB7B18461037BD4680BD80B51F
:105AC00084B000AF78600B46FB700023FB730023AB
:105AD000BB737B68D3F8C832FA781146184603F0D6
